{"abi":[{"type":"constructor","inputs":[],"stateMutability":"nonpayable"},{"type":"function","name":"_admin","inputs":[],"outputs":[{"name":"","type":"address","internalType":"address"}],"stateMutability":"view"},{"type":"function","name":"addAddressToBlacklist","inputs":[{"name":"_toBeBlacklisted","type":"address","internalType":"address"}],"outputs":[],"stateMutability":"nonpayable"},{"type":"function","name":"allowance","inputs":[{"name":"owner","type":"address","internalType":"address"},{"name":"spender","type":"address","internalType":"address"}],"outputs":[{"name":"","type":"uint256","internalType":"uint256"}],"stateMutability":"view"},{"type":"function","name":"approve","inputs":[{"name":"spender","type":"address","internalType":"address"},{"name":"value","type":"uint256","internalType":"uint256"}],"outputs":[{"name":"","type":"bool","internalType":"bool"}],"stateMutability":"nonpayable"},{"type":"function","name":"balanceOf","inputs":[{"name":"account","type":"address","internalType":"address"}],"outputs":[{"name":"","type":"uint256","internalType":"uint256"}],"stateMutability":"view"},{"type":"function","name":"decimals","inputs":[],"outputs":[{"name":"","type":"uint8","internalType":"uint8"}],"stateMutability":"view"},{"type":"function","name":"name","inputs":[],"outputs":[{"name":"","type":"string","internalType":"string"}],"stateMutability":"view"},{"type":"function","name":"symbol","inputs":[],"outputs":[{"name":"","type":"string","internalType":"string"}],"stateMutability":"view"},{"type":"function","name":"totalSupply","inputs":[],"outputs":[{"name":"","type":"uint256","internalType":"uint256"}],"stateMutability":"view"},{"type":"function","name":"transfer","inputs":[{"name":"to","type":"address","internalType":"address"},{"name":"value","type":"uint256","internalType":"uint256"}],"outputs":[{"name":"","type":"bool","internalType":"bool"}],"stateMutability":"nonpayable"},{"type":"function","name":"transferFrom","inputs":[{"name":"from","type":"address","internalType":"address"},{"name":"to","type":"address","internalType":"address"},{"name":"value","type":"uint256","internalType":"uint256"}],"outputs":[{"name":"","type":"bool","internalType":"bool"}],"stateMutability":"nonpayable"},{"type":"event","name":"Approval","inputs":[{"name":"owner","type":"address","indexed":true,"internalType":"address"},{"name":"spender","type":"address","indexed":true,"internalType":"address"},{"name":"value","type":"uint256","indexed":false,"internalType":"uint256"}],"anonymous":false},{"type":"event","name":"Transfer","inputs":[{"name":"from","type":"address","indexed":true,"internalType":"address"},{"name":"to","type":"address","indexed":true,"internalType":"address"},{"name":"value","type":"uint256","indexed":false,"internalType":"uint256"}],"anonymous":false},{"type":"error","name":"ERC20InsufficientAllowance","inputs":[{"name":"spender","type":"address","internalType":"address"},{"name":"allowance","type":"uint256","internalType":"uint256"},{"name":"needed","type":"uint256","internalType":"uint256"}]},{"type":"error","name":"ERC20InsufficientBalance","inputs":[{"name":"sender","type":"address","internalType":"address"},{"name":"balance","type":"uint256","internalType":"uint256"},{"name":"needed","type":"uint256","internalType":"uint256"}]},{"type":"error","name":"ERC20InvalidApprover","inputs":[{"name":"approver","type":"address","internalType":"address"}]},{"type":"error","name":"ERC20InvalidReceiver","inputs":[{"name":"receiver","type":"address","internalType":"address"}]},{"type":"error","name":"ERC20InvalidSender","inputs":[{"name":"sender","type":"address","internalType":"address"}]},{"type":"error","name":"ERC20InvalidSpender","inputs":[{"name":"spender","type":"address","internalType":"address"}]}],"bytecode":{"object":"0x60806040523480156200001157600080fd5b506040518060400160405280601081526020016f29b0b731ba34b7b732b2102a37b5b2b760811b8152506040518060400160405280600381526020016214d39560ea1b81525081600390816200006891906200031b565b5060046200007782826200031b565b5050600580546001600160a01b031916339081179091556200009d91506103e8620000a3565b6200040f565b6001600160a01b038216620000d35760405163ec442f0560e01b8152600060048201526024015b60405180910390fd5b620000e160008383620000e5565b5050565b620000f283838362000144565b6001600160a01b03831660009081526006602052604090205460ff161580156200013557506001600160a01b03821660009081526006602052604090205460ff16155b6200013f57600080fd5b505050565b6001600160a01b03831662000173578060026000828254620001679190620003e7565b90915550620001e79050565b6001600160a01b03831660009081526020819052604090205481811015620001c85760405163391434e360e21b81526001600160a01b03851660048201526024810182905260448101839052606401620000ca565b6001600160a01b03841660009081526020819052604090209082900390555b6001600160a01b038216620002055760028054829003905562000224565b6001600160a01b03821660009081526020819052604090208054820190555b816001600160a01b0316836001600160a01b03167fddf252ad1be2c89b69c2b068fc378daa952ba7f163c4a11628f55a4df523b3ef836040516200026a91815260200190565b60405180910390a3505050565b634e487b7160e01b600052604160045260246000fd5b600181811c90821680620002a257607f821691505b602082108103620002c357634e487b7160e01b600052602260045260246000fd5b50919050565b601f8211156200013f57600081815260208120601f850160051c81016020861015620002f25750805b601f850160051c820191505b818110156200031357828155600101620002fe565b505050505050565b81516001600160401b0381111562000337576200033762000277565b6200034f816200034884546200028d565b84620002c9565b602080601f8311600181146200038757600084156200036e5750858301515b600019600386901b1c1916600185901b17855562000313565b600085815260208120601f198616915b82811015620003b85788860151825594840194600190910190840162000397565b5085821015620003d75787850151600019600388901b60f8161c191681555b5050505050600190811b01905550565b808201808211156200040957634e487b7160e01b600052601160045260246000fd5b92915050565b610803806200041f6000396000f3fe608060405234801561001057600080fd5b50600436106100a95760003560e01c8063313ce56711610071578063313ce5671461013b57806370a082311461014a57806395d89b4114610173578063a9059cbb1461017b578063dd62ed3e1461018e578063f2c816ae146101c757600080fd5b806301bc45c9146100ae57806306fdde03146100de578063095ea7b3146100f357806318160ddd1461011657806323b872dd14610128575b600080fd5b6005546100c1906001600160a01b031681565b6040516001600160a01b0390911681526020015b60405180910390f35b6100e66101dc565b6040516100d5919061064d565b6101066101013660046106b7565b61026e565b60405190151581526020016100d5565b6002545b6040519081526020016100d5565b6101066101363660046106e1565b610288565b604051601281526020016100d5565b61011a61015836600461071d565b6001600160a01b031660009081526020819052604090205490565b6100e66102ac565b6101066101893660046106b7565b6102bb565b61011a61019c36600461073f565b6001600160a01b03918216600090815260016020908152604080832093909416825291909152205490565b6101da6101d536600461071d565b6102c9565b005b6060600380546101eb90610772565b80601f016020809104026020016040519081016040528092919081815260200182805461021790610772565b80156102645780601f1061023957610100808354040283529160200191610264565b820191906000526020600020905b81548152906001019060200180831161024757829003601f168201915b5050505050905090565b60003361027c818585610304565b60019150505b92915050565b600033610296858285610316565b6102a1858585610399565b506001949350505050565b6060600480546101eb90610772565b60003361027c818585610399565b6005546001600160a01b031633146102e057600080fd5b6001600160a01b03166000908152600660205260409020805460ff19166001179055565b61031183838360016103f8565b505050565b6001600160a01b038381166000908152600160209081526040808320938616835292905220546000198114610393578181101561038457604051637dc7a0d960e11b81526001600160a01b038416600482015260248101829052604481018390526064015b60405180910390fd5b610393848484840360006103f8565b50505050565b6001600160a01b0383166103c357604051634b637e8f60e11b81526000600482015260240161037b565b6001600160a01b0382166103ed5760405163ec442f0560e01b81526000600482015260240161037b565b6103118383836104cd565b6001600160a01b0384166104225760405163e602df0560e01b81526000600482015260240161037b565b6001600160a01b03831661044c57604051634a1406b160e11b81526000600482015260240161037b565b6001600160a01b038085166000908152600160209081526040808320938716835292905220829055801561039357826001600160a01b0316846001600160a01b03167f8c5be1e5ebec7d5bd14f71427d1e84f3dd0314c0f7b2291e5b200ac8c7c3b925846040516104bf91815260200190565b60405180910390a350505050565b6104d8838383610523565b6001600160a01b03831660009081526006602052604090205460ff1615801561051a57506001600160a01b03821660009081526006602052604090205460ff16155b61031157600080fd5b6001600160a01b03831661054e57806002600082825461054391906107ac565b909155506105c09050565b6001600160a01b038316600090815260208190526040902054818110156105a15760405163391434e360e21b81526001600160a01b0385166004820152602481018290526044810183905260640161037b565b6001600160a01b03841660009081526020819052604090209082900390555b6001600160a01b0382166105dc576002805482900390556105fb565b6001600160a01b03821660009081526020819052604090208054820190555b816001600160a01b0316836001600160a01b03167fddf252ad1be2c89b69c2b068fc378daa952ba7f163c4a11628f55a4df523b3ef8360405161064091815260200190565b60405180910390a3505050565b600060208083528351808285015260005b8181101561067a5785810183015185820160400152820161065e565b506000604082860101526040601f19601f8301168501019250505092915050565b80356001600160a01b03811681146106b257600080fd5b919050565b600080604083850312156106ca57600080fd5b6106d38361069b565b946020939093013593505050565b6000806000606084860312156106f657600080fd5b6106ff8461069b565b925061070d6020850161069b565b9150604084013590509250925092565b60006020828403121561072f57600080fd5b6107388261069b565b9392505050565b6000806040838503121561075257600080fd5b61075b8361069b565b91506107696020840161069b565b90509250929050565b600181811c9082168061078657607f821691505b6020821081036107a657634e487b7160e01b600052602260045260246000fd5b50919050565b8082018082111561028257634e487b7160e01b600052601160045260246000fdfea264697066735822122011580c2ad7f04ee382c1f947c2929e1ed6ff9d3a7c5bf63a984772809b5a26ce64736f6c63430008140033","linkReferences":{}},"methodIdentifiers":{"_admin()":"01bc45c9","addAddressToBlacklist(address)":"f2c816ae","allowance(address,address)":"dd62ed3e","approve(address,uint256)":"095ea7b3","balanceOf(address)":"70a08231","decimals()":"313ce567","name()":"06fdde03","symbol()":"95d89b41","totalSupply()":"18160ddd","transfer(address,uint256)":"a9059cbb","transferFrom(address,address,uint256)":"23b872dd"},"id":28}